:020000020000FC
:100000000FED0DBF02EA01BF04E003BF07E80FBD1B
:1000100001E00CBD08E007BB07E00ABB10E81BBB12
:100020002CE708B70270E9F308BF2A95D1F717E863
:100030001BBB09E207B906EE06B901E005BF66245D
:10004000442455242227349B1CC005B1349A1364E0
:10005000CF9B0BC00D3418F41D7F439404C0023BAA
:1000600010F01E7F5394D69A0BC0093218F41D7FEE
:10007000439404C0063610F01E7F53941F7BD6981D
:100080001BBB08B7027011F108BF222321F02A958B
:1000900011F414601BBB022F05290429A1F054148C
:1000A00030F0552011F400E701C006E401C00DEB6B
:1000B00044245524061519F4222309F000E7602E84
:1000C0000BBD00E102C0662400E200BF0AB7007465
:0C00D00021F00ABF2CE01B7F1BBBB5CF4A
:00000001FF
