:020000020000FC
:100000000FED0DBF02EA01BF04E003BF07E80FBD1B
:1000100001E00CBD08E007BB07E00ABB10E81BBB12
:100020002CE708B70270E9F308BF2A95D1F717E863
:100030001BBB09E207B906EE06B901E005BF66245D
:10004000442455242227349B19C005B1349A1360E7
:10005000CF9B0AC00D3418F41D7F439404C0023BAB
:1000600010F01E7F539409C0093218F41D7F439489
:1000700004C0063610F01E7F53941BBB08B70270F5
:1000800011F108BF222321F02A9511F414601BBB43
:10009000022F05290429A1F0541438F0552011F439
:1000A00000E702C006E4552402C00DEB4424061507
:1000B00019F4222309F000E7602E0BBD00E102C015
:1000C000662400E200BF0AB7007421F00ABF2CE0EA
:0600D0001B7F1BBBB8CF33
:00000001FF
